:100000000C9481000C94DA000C94AB000C94A900C1
:100010000C94A9000C94A9000C94A9000C94A900BC
:100020000C94A9000C94A9000C94A9000C94A900AC
:100030000C94A9000C94ED000C94A9000C94A90058
:100040000C94A9000C94A9000C94A9000C94A9008C
:100050000C94A9000C94A9000C94A9000C94A9007C
:100060000C94A9000C94A9000C94A9000C94A9006C
:100070000C94A9000C94A9000C94A90007634236C3
:10008000B79BD8A71A39685618AEBAAB558C1D3C29
:10009000B7CC5763BD6DEDFD753EF6177231BF00ED
:1000A0000000803F08000000BE922449123EABAA27
:1000B000AA2ABECDCCCC4C3E00000080BEABAAAA82
:1000C000AA3E00000000BF000000803F00000000CA
:1000D00000084178D3BB4387D1133D190E3CC3BD03
:1000E0004282AD2B3E68EC8276BED98FE1A93E4CB0
:1000F00080EFFFBE01C4FF7F3F0000000000B11091
:10010000CA1011241FBECFEFD8E0DEBFCDBF11E073
:10011000A0E0B1E0E2E6F9E202C005900D92A43061
:10012000B107D9F721E0A4E0B1E001C01D92A63AE1
:10013000B207E1F710E0C0E8D0E004C02197FE016B
:100140000E941011CF37D107C9F70E9486100C9476
:10015000A4140C9400001F920F920FB60F9211245A
:100160002F933F934F935F936F937F938F939F93BF
:10017000AF93BF93EF93FF938FE59AEE0197F1F75B
:1001800000C0000060910B018BE091E00E94320101
:10019000E19AFF91EF91BF91AF919F918F917F91E4
:1001A0006F915F914F913F912F910F900FBE0F90E4
:1001B0001F9018958F938FB78F939F938FE59AEE2B
:1001C0000197F1F700C0000081E080930C01E09AF4
:1001D0009F918F918FBF8F9118951F921FB61F927D
:1001E00011248F93EF93FF93EBE0F1E081E082879E
:1001F000808F80935F018093600110928100FF9156
:10020000EF918F911F901FBE1F90189510927C0048
:1002100086E880937A00089510927A00089580917C
:100220007C00807E80937C0080917C006770682BCE
:1002300060937C0080917A00806480937A00809142
:100240007A0084FFFCCF80917A00806180937A00ED
:10025000209178008091790090E0982F8827820F74
:10026000911D0895FC01613031F0623039F081E078
:10027000662311F0089582E0808308951082FACFFA
:10028000CF93DF93D0E0C0E0AE0181599F4F0E9431
:1002900064038881DF91CF910895CF93DF93EC01C0
:1002A000FC011192CF0141E050E060E00E94F804AF
:1002B000CE0109960E947E0ACE01805B9F4F0E946C
:1002C000570663E070E0CE010E944001FE01E25952
:1002D000FF4F8083CE0181599F4F0E945303CE016F
:1002E00080599F4F0E94F70F41E060E0CE018F5888
:1002F0009F4F0E94590EFE01ED58FF4F81E090E0A4
:100300009183808361E070E0CE018B589F4F0E9403
:100310004B05CE0186589F4F0E940601CE0185589D
:100320009F4F0E94CD0DCE018B579F4FDF91CF91F4
:100330000C94020FCF92DF92EF92FF920F931F93D4
:10034000CF93DF93EC018C010F581F4FC8010E941F
:10035000B20ECE01805B9F4F0E9486062FEF86E192
:1003600091E1215080409040E1F700C000006E0113
:1003700024E1C20ED11C7E0189E0E80EF11CC60109
:100380000E940B08811104C0C7010E94240BF7CF03
:10039000C8010E946A0ECE018B589F4F0E94DE0555
:1003A0009FEF23ED80E3915020408040E1F700C0B3
:1003B00000008CA9823029F48987CE0109960E9419
:1003C000E00A4CA963E070E0CE0181599F4F0E9482
:1003D0002A048FE097E20197F1F700C0000083E064
:1003E0008883DF91CF911F910F91FF90EF90DF9065
:1003F000CF900895EF92FF920F931F93CF93DF93C7
:10040000EC018F589F4F0E948E0E8E01005B1F4F94
:10041000C8010E9486062FEF86E191E121508040BD
:100420009040E1F700C00000C8010E940B08811154
:1004300004C0C8010E949808F7CFFE01E259FF4F9F
:100440008081823079F561E070E07E0129E0E20E82
:10045000F11CC7010E94820B62E070E0C7010E949C
:10046000820B70E060E0C7010E94820B7E0195E77D
:10047000E90EF11CC7010E94E305C8010E9486062F
:100480002FEF86E191E1215080409040E1F700C0DC
:100490000000C8010E94340881111AC0C8010E94DE
:1004A000DF09F7CF833011F762E070E07E0189E069
:1004B000E80EF11CC7010E945E0C61E070E0C7010C
:1004C0000E945E0C70E060E0C7010E945E0CCECF1F
:1004D000C7010E94DE052FEF83ED90E3215080409D
:1004E0009040E1F700C0000082E08883DF91CF9167
:1004F0001F910F91FF90EF900895AF92BF92CF920E
:10050000DF92EF92FF920F931F93CF93DF93EC0153
:100510005C0124E5A20EB11CF50110823196108217
:100520006C01F1E7CF0ED11CC6010E94D60E7E01F0
:1005300025E7E20EF11C46E966E9C7010E9498052D
:100540008FEF96E1E1E181509040E040E1F700C09B
:1005500000008E010D5A1F4F40EE57E665E370E034
:10056000C8010E94E10DBC01C8010E94140E035095
:100570001109F5018081811104C0C8010E94980809
:10058000F8CFC7010E946905FFEF24E38CE0F1502A
:1005900020408040E1F700C000005E019DE5A90E0B
:1005A000B11CF5018081833020F4C8010E949806B7
:1005B000F8CFC8010E948906C6010E946A0EFFEFAB
:1005C00025EB85E3F15020408040E1F700C00000BA
:1005D000C6010E94720E81E0FE01EE59FF4F80833A
:1005E000C8010E947C0A811104C0C8010E949808B9
:1005F000F7CFC6010E946E0E9FE7E5EBF1E0915048
:10060000E040F040E1F700C00000C8010E947C0A11
:10061000882359F3C7010E94DE052FEF83ED90E395
:10062000215080409040E1F700C00000C7010E94C7
:10063000EF058E010B571F4FC8010E94DB0FEFEF34
:10064000F9E628E1E150F0402040E1F700C0000069
:10065000C8010E94F50FFE01EC5AFF4F108283E0A3
:100660008883DF91CF911F910F91FF90EF90DF90E2
:10067000CF90BF90AF900895613031F0623031F08B
:10068000611106C00C949A010C94FA010C947D023D
:100690000895089580EA809302011092B90080E2E3
:1006A0008093B8000895FC0180E88083CF010C940A
:1006B0004A03982F9370891305C0880F806A80932E
:1006C000020108958FEF0895FA0194EA24E89093C7
:1006D000BC008091BC0087FFFCCF80910201809319
:1006E000BB002093BC008091BC0087FFFCCF8091B1
:1006F000B900883161F784EA8093BC008091BC0026
:1007000087FFFCCF809102018093BB0084E8809337
:10071000BC008091BC0087FFFCCF7093BB0084E8D5
:100720008093BC008091BC0087FFFCCF6093BB002E
:1007300084E88093BC008091BC0087FFFCCF80914F
:10074000BC0087FFFCCF84EA8093BC008091BC0092
:1007500087FFFCCF809102018F5F8093BB0084E80C
:100760008093BC008091BC0087FFFCCF84E880931D
:10077000BC008091BC0087FFFCCF8091BB008083D0
:1007800084E98093BC0080E0089594EA34E8909373
:10079000BC008091BC0087FFFCCF80910201809358
:1007A000BB003093BC008091BC0087FFFCCF8091E0
:1007B000B900883161F784EA8093BC008091BC0065
:1007C00087FFFCCF809102018093BB0084E8809377
:1007D000BC008091BC0087FFFCCF7093BB0084E815
:1007E0008093BC008091BC0087FFFCCF6093BB006E
:1007F00084E88093BC008091BC0087FFFCCF84EA32
:100800008093BC008091BC0087FFFCCF80910201E7
:100810008F5F8093BB0084E88093BC008091BC0014
:1008200087FFFCCF84EC222381F0213009F484E897
:100830008093BC009091BC0097FFFCCFFA0190918F
:10084000BB0091932150AF01EECF84E98093BC00AF
:1008500080E0089594EA24E89093BC008091BC0065
:1008600087FFFCCF809102018093BB002093BC00E6
:100870008091BC0087FFFCCF8091B900883161F77F
:1008800084EA8093BC008091BC0087FFFCCF8091FC
:1008900002018093BB0084E88093BC008091BC007F
:1008A00087FFFCCF7093BB0084E88093BC008091ED
:1008B000BC0087FFFCCF6093BB0084E88093BC0042
:1008C0008091BC0087FFFCCF4093BB0084E88093FD
:1008D000BC008091BC0087FFFCCF84E98093BC0002
:1008E00080E00895FB01260F372F311DDC018C912C
:1008F0008150990B862B9F2B2817390718F09C01E4
:100900002F5F3F4F822F8E1B24EA34E82093BC00D8
:100910009091BC0097FFFCCF909102019093BB0097
:100920003093BC009091BC0097FFFCCF9091B90030
:10093000983161F794EA9093BC009091BC0097FFC6
:10094000FCCF909102019093BB0094E89093BC007F
:100950009091BC0097FFFCCFF093BB0094E890937C
:10096000BC009091BC0097FFFCCFE093BB0094E8E3
:100970009093BC009091BC0097FFFCCF982F24E887
:10098000992369F0FA0131913093BB002093BC00A8
:100990003091BC0037FFFCCF9150AF01F1CF94E90B
:1009A0009093BC000895DF92EF92FF920F931F93F4
:1009B000CF93DF93D82ED92F7B018A01C22F2C2F02
:1009C000A801B7018D2D9D2F0E947204282F30E0C1
:1009D000E20EF31EC81B020F131FC111F0CF80E0FF
:1009E000DF91CF911F910F91FF90EF90DF900895CD
:1009F000FC01CA0124E0248328E0258310826111D0
:100A00001BC05298E89A538342834130510549F004
:100A10004230510569F0892B51F480916900816061
:100A200003C0809169008260809369007894089582
:100A3000809169008360F8CF5398E99A5383428389
:100A40004130510549F04230510551F0892B79F779
:100A5000809169008460E8CF809169008860E4CF6C
:100A6000809169008C60E0CFFC0189B19481892379
:100A700091E009F490E0AFE5BAEE1197F1F700C00C
:100A8000000089B12481822321E009F420E081E083
:100A9000291380E00895FC011192CF010C942B10D2
:100AA00070E060E001960C94561061E070E00196F1
:100AB0000C94561042E362E801960C94791042E3DC
:100AC00068EC01960C94791042E366E901960C9467
:100AD000791042E866E401960C94791048EC62E3E0
:100AE00001960C94791046E966E401960C9479100D
:100AF000CF93DF93EC0121964AEF6AEFCE010E947B
:100B000079108FE39CE90197F1F700C0000048E7F6
:100B100068E7CE01DF91CF910C94791040EA60EA4A
:100B200001960C94791042ED62ED01960C947910C7
:100B300001960C9479100F931F93CF93DF93EC01E0
:100B40000E945005CE010E948E052FEF83ED90E3A9
:100B5000215080409040E1F700C00000CE010E948B
:100B60005A052FEF89E698E1215080409040E1F747
:100B700000C0000006E010E0CE010E9469052FEFE2
:100B800089E698E1215080409040E1F700C00000E4
:100B9000CE010E945A052FEF89E698E1215080404E
:100BA0009040E1F700C000000150110929F781E0F1
:100BB0008883DF91CF911F910F91089540E060E00D
:100BC00001960C94791046EE66EE01960E9479101B
:100BD0008FE39CE90197F1F700C0000008950F939F
:100BE0001F93CF93DF93EC010E945505CE010E9425
:100BF000E3058E010F5F1F4F48EC68ECC8010E94AF
:100C000079102FEF86E191E1215080409040E1F78B
:100C100000C00000CE010E94DE052FEF84E39CE0BF
:100C2000215080409040E1F700C00000CE010E94BA
:100C3000E3054CE86AE0C8010E9479102FE789EBD0
:100C40009AE2215080409040E1F700C00000CE01C0
:100C50000E94DE052FEF84E39CE02150804090400D
:100C6000E1F700C00000CE010E94E30546E966E915
:100C7000C8010E9479102FEF81EF9BE22150804044
:100C80009040E1F700C00000CE01DF91CF911F91AD
:100C90000F910C94DE054AEF6AEF01960E947910DD
:100CA0008FE39CE90197F1F700C0000008951F93BE
:100CB000CF93DF93EC01188219821A8203960E9467
:100CC000CD0D1D861E8611E01F87188A198A1A8A83
:100CD00061E070E0CE0143960E944B05188F82E0E0
:100CE000898F84E08A8F88E08B8F80E18C8F80E20F
:100CF0008D8F81B1807E81B9DF91CF911F91089551
:100D000080B1682381E009F480E0089543960C9453
:100D10008E0543960C94690543960C946E05439694
:100D20000C945A0543960C945F0543960C94DE058B
:100D30000F931F93CF93DF93EC0180B19C8D892398
:100D400090B1288D9223B1F09F85911116C081E05A
:100D50008F878E010D5E1F4FC8010E94E305C801F9
:100D60000E9469058D858F5F8D87DF91CF911F91DF
:100D70000F9108958823C9F38F858823B1F31F86C7
:100D80006396CE010E94E305CE01DF91CF911F91C2
:100D90000F910C945A05FC0150B1828D582320B15B
:100DA000848D282390B1808D9823438D70B1318D2F
:100DB00060B1222319F081E0911101C080E0552338
:100DC00049F0472311F0211104C0232F262311F0ED
:100DD000911181E008950F931F93CF93DF93EC015E
:100DE0008C010D5E1F4FCE010E94CB0681116CC09D
:100DF00030B1988D392390B1698D692320B19A8DD6
:100E0000922350B12B8D522340B12C8D422391F06F
:100E1000511112C0262F232B292B81F1311145C0EE
:100E2000611146C0992379F041110BC030E020E0F8
:100E300071E030C0552391F3311137C031E06111B9
:100E400030E070E002C070E030E020E023C03323E7
:100E500021F0C8010E946905C6CF222341F0C801D4
:100E60000E946E05C0CFC8010E945A05BCCF8823DE
:100E700009F4B9CFC8010E94DE05B5CF70E021E0CA
:100E8000332341F021E0742F752B39F79923B1F00A
:100E90003111E3CF962B952B942B09F481E0772326
:100EA000B1F2C8010E948E059ECF20E0662359F35F
:100EB000242F252BC1F2311196CFC3CF2111CFCFD3
:100EC000C8010E945F058FCFDF91CF911F910F91D5
:100ED00008950F931F93CF93DF93EC018C010D5E68
:100EE0001F4FCE010E94CB06811162C040B1988D88
:100EF000492320B1798D722390B12A8D292360B1C5
:100F00009B8D692350B19C8D5923F1F061111EC056
:100F1000972F942B922B09F45CC0411173C071116F
:100F200074C02223D9F090E030E05523D1F0272B74
:100F3000262B252BC1F020E04423C1F042E862E8D3
:100F4000C8010E949805CDCF662339F341115AC0DC
:100F500091E0711190E040E030E0E9CF40E090E0B6
:100F6000FBCF41E0E4CF20E081E0E6CF992309F414
:100F700040C04CE866E4E4CF90E020E03AC020E0D6
:100F800091E037C048E26CED9111DACF882309F483
:100F9000A8CF8989882321F0C8010E946905A1CFC3
:100FA0008889882309F49DCFC8010E945A0599CFEA
:100FB000C8010E94DE052FEF89E698E121508040AC
:100FC0009040E1F700C00000DF91CF911F910F9199
:100FD000089590E031E0442309F4A9CF31E0952F42
:100FE000962B51F6222359F2442309F4A0CF20E096
:100FF00090E04CED68E23111A3CF222319F246E4D0
:101000006CE89ECF30E0772351F3952F962BB9F300
:10101000411167CFA4CFFC0180B1948D892320B109
:10102000908D2923882311F021111AC0928D60B16F
:10103000338D50B140B1718D472329F0962319F0BB
:10104000352391E009F490E0882319F081E0211123
:1010500001C080E02281223030F0882319F0089509
:1010600081E00895892F0895FC0140B1248D70B16D
:10107000908D50B1338DA0B1818D60B1E28D4E2342
:1010800049F03A2339F0272329F0862319F09523D4
:1010900081E009F480E00895FC0190B180B140B195
:1010A00030B120B1548D8523528D9523982B808D9E
:1010B0008423982B838D8323982B818D8223982BD7
:1010C00081E009F080E008950F931F93CF93DF93A1
:1010D000EC018C010D5E1F4FC8010E94DE052FEF51
:1010E00083EC99E0215080409040E1F700C000007F
:1010F000C8010E94E305CE010E944C08882321F01C
:10110000C8010E946405F7CFC8010E9469052FEF4E
:1011100082E597E0215080409040E1F700C0000058
:101120008A818F5F8A83DF91CF911F910F910895FC
:10113000CF93DF93EC0120B1888D282390B1498DA6
:10114000492380B19A8D9823E0B18B8DE82360B15B
:101150008C8D682399F0E11113C0842F822B892B89
:1011600009F4D3C0211117C04111F6C0992309F425
:10117000F1C0662309F4D6C050E0CAC0EE2391F353
:10118000211109C0442309F4E3C050E0411127C0F4
:1011900080E030E0A2C050E0442389F050E06111CB
:1011A000D0C0EE2309F495C0222379F350E0411119
:1011B00016C070E0211131C080E030E094C06111B0
:1011C000C0C0E111F4CF30E0992309F47CC0411193
:1011D0000CC080E0222309F49DC090E01BC099233D
:1011E00009F4ABC030E0E11168C0222309F479C0F2
:1011F000411192C090E060E080E05523E1F0CE0123
:101200004396DF91CF910C946E0590E060E041E051
:1012100073C091E060E080E004C090E060E080E0B6
:1012200030E040E0EACF222341F3CE014396DF9144
:10123000CF910C946905332331F0CE014396DF91B1
:10124000CF910C945A05882331F0CE014396DF915B
:10125000CF910C945F05992381F08A81823038F414
:10126000CE010E9464081882DF91CF910895CE01CB
:101270004396DF91CF910C94DE05442391F0888151
:10128000811108C08A89811105C0CE01DF91CF91FB
:101290000C946408CE0143960E94DE0581E08983A8
:1012A000E3CF662309F38A81823021F4CE0143968D
:1012B0000E94DE0581E08883D7CF91E0211101C033
:1012C00090E061E0A8CF411134C0211132C081E02B
:1012D00009C021112AC080E031E070E020E050E038
:1012E00003C080E070E020E0942B9E2B962B09F445
:1012F0008CCF90E060E040E0772309F494CFCE01FA
:101300004396DF91CF910C948E0551E0211157CF78
:1013100080E030E070E0E8CF91117BCF80E070E0BA
:1013200020E0E7CF71E050E047CF31E050E091118D
:101330004ECF90E060E081E074CF30E02111EECF3D
:10134000E7CF41114CCF90E060E080E030E055CF36
:1013500021E012CF20E010CF611117CFBCCF0F9347
:101360001F93CF93DF938C01EC016396CE010E9413
:10137000DE052FEF83EC99E0215080409040E1F7AB
:1013800000C00000CE010E94E305C8010E944C0885
:10139000882321F0CE010E947305F7CFCE010E9471
:1013A0005A052FEF82E597E0215080409040E1F709
:1013B00000C00000DF91CF911F910F910895FC01B3
:1013C00070B1808D782390B1A18DA92320B1928D29
:1013D000922350B1838D582360B1848D682391F09E
:1013E000511112C08A2F872B892BE1F071115FC038
:1013F000A11160C0992371F061110CC071E080E00F
:1014000040E00DC0552391F3711151C041E080E0DF
:10141000AA2311F080E040E0611164C070E020E098
:10142000B0E043C081E04AC0552309F44EC040E01B
:1014300031E0911101C030E020E0B0E071110BC04B
:101440009A2B952B962B49F090E0772341F0CF0112
:1014500043960C948E0570E0F7CF91E0F6CF4423CD
:1014600021F0CF0143960C946905882321F0CF0128
:1014700043960C946E05BB2321F0CF0143960C9448
:101480005A05222321F0CF0143960C945F0599233E
:1014900019F0CF010C94AF093111FBCF08957111F0
:1014A00018C020E0B1E040E080E030E0C9CF80E04B
:1014B000AA2339F0862F852B91F380E0772309F456
:1014C000AACF6111B1CF552399F020E040E030E080
:1014D000B4CF21E0911120E0B1E070E040E080E085
:1014E00030E0B2CF5111A4CF20E0B0E070E0DDCF0A
:1014F00021E0992359F3E9CF0C944C080F931F93E3
:10150000CF93DF93EC018C010F5F1F4FC8010E9446
:10151000CD0DCE010B960E94570640E854E86EE1CF
:1015200070E0C8010E94E10D9AA789A71EA61DA61A
:1015300081E090E098AB8FA761E070E0CE01C196AA
:101540000E944B05CE01C6960E940601CE01C796A9
:101550000E94F70FCE01C8960E945303CE01C99690
:101560000E94020F0E98DF91CF911F910F91089565
:10157000EF92FF920F931F93CF93DF930CE211E052
:10158000D0E0C0E07C0126E3E20EF11C66E0C7017A
:101590000E940F019695879596958795C80FD11D46
:1015A0000150110999F7CE016CE271E00E94DA1046
:1015B000862FDF91CF911F910F91FF90EF900895AB
:1015C000CF93DF93EC0188818CA7813019F18230B1
:1015D00031F1811136C019826DA57EA540E0CE01A2
:1015E000C8960E942A048FE097E20197F1F700C0A5
:1015F00000008DA59EA501969EA78DA769A57AA539
:10160000CE0101960E94140ECE01C196DF91CF91BA
:101610000C94E30519826DA57EA541E0E0CF6DA590
:101620007EA542E0CE01C8960E942A048FE097E290
:101630000197F1F700C000008DA59EA501969EA719
:101640008DA7DF91CF9108950F931F93CF93DF93D1
:10165000EC010E94B80A182FCE010B960E94980840
:1016600089818823F1F11D501131D8F52FE789EADE
:1016700093E0215080409040E1F700C00000CE018F
:101680000E94B80A8432C0F08BA58F5F8BA7CE0171
:10169000C1960E94DE058E01075C1F4FC8010E94A3
:1016A000DB0FC8010E94F50F1882CE01DF91CF91A8
:1016B0001F910F910C94E00A893198F48BA58F5FEC
:1016C0008BA7CE01C1960E94DE058E01075C1F4FDD
:1016D000C8010E94E80FC8010E94F50F81E08883CD
:1016E000E4CFDF91CF911F910F910895CF93DF93B6
:1016F000D0E0C0E0AE01C8960E9464038881DF910B
:10170000CF910895EF92FF920F931F93CF93DF93A2
:10171000EC018B010E94760B01301105A9F102301A
:10172000110509F474C0012BD1F4811120C081E0AE
:101730008C8F8E010F5C1F4FC8010E94E305C8010A
:101740000E9469052FEF89E698E121508040904082
:10175000E1F700C00000CE010B960E9469071F86CA
:10176000DF91CF911F910F91FF90EF9008958130FD
:10177000B1F78B8F8E010F5C1F4FC8010E94E305EC
:10178000C8010E945A05DECF811124C08E010F5C72
:101790001F4FC8010E94E305C8010E9469052FEF91
:1017A00089E698E1215080409040E1F700C00000B8
:1017B00006521109C8010E94EB06C8010E94890661
:1017C0002FEF86E191E1215080409040E1F700C089
:1017D0000000C5CF813019F68E010F5C1F4FC80184
:1017E0000E94E305C8010E945A052FEF89E698E19F
:1017F000215080409040E1F700C0000006521109DE
:10180000C8010E94EB06C8010E948F06D9CF823022
:1018100009F0A5CF8E010F5C1F4FC8010E94E305A0
:1018200040E658E163E270E07E012EE0E20EF11C3A
:10183000C7010E94E10DBC01C7010E94140E7E0188
:101840008BE0E80EF11C8F85811104C0C7010E9456
:101850009808F9CFC8010E94DE059FEF29E688E1CC
:10186000915020408040E1F700C00000C8010E9474
:10187000E305C8010E945505C8010E948E059FEF2F
:1018800029E688E1915020408040E1F700C0000047
:10189000C8010E94DE059FEF29E688E191502040B3
:1018A0008040E1F700C00000C8010E94E305C801C4
:1018B0000E945005C7010E94EB0651CFEF92FF92A4
:1018C0000F931F93CF93DF93EC018B010E94760B54
:1018D00001301105A9F10230110509F4F7C0012BFF
:1018E000D1F4811120C081E08B8F8E010F5C1F4FDE
:1018F000C8010E94E305C8010E9469052FEF89E62F
:1019000098E1215080409040E1F700C00000CE01F6
:101910000B960E9469071F86DF91CF911F910F914F
:10192000FF90EF9008958130B1F78C8F8E010F5C9E
:101930001F4FC8010E94E305C8010E945A05DECF6F
:10194000811163C08E010F5C1F4FC8010E94E30527
:1019500040E05FE964E270E07E012EE0E20EF11CFF
:10196000C7010E94E10DBC01C7010E94140E7E0157
:101970008BE0E80EF11C8F85811104C0C7010E9425
:101980009808F9CFC8010E94DE059FEF2EE984E296
:10199000915020408040E1F700C00000C8010E9443
:1019A000E305C8010E945A059FEF2BE48DE1915099
:1019B00020408040E1F700C00000C8010E94DE0521
:1019C0009FEF29E688E1915020408040E1F700C078
:1019D0000000C8010E94E305C7010E944C0888234B
:1019E00021F0C8010E947305F7CFC7010E948F063E
:1019F0009FEF22E587E0915020408040E1F700C052
:101A00000000C7010E94EB0686CF813009F083CF2A
:101A10008E010F5C1F4FC8010E94E30540E05FE9A3
:101A200064E270E07E019EE0E90EF11CC7010E94B5
:101A3000E10DBC01C7010E94140E7E012BE0E20EF5
:101A4000F11C8F85811104C0C7010E949808F9CF4D
:101A5000C8010E94DE058FEF9EE924E2815090408C
:101A60002040E1F700C00000C8010E94E305C80162
:101A70000E9469058FEF9BE42DE18150904020404A
:101A8000E1F700C00000C8010E94DE058FEF99E673
:101A900028E1815090402040E1F700C00000C801DB
:101AA0000E94E305C7010E944C08882321F0C80169
:101AB0000E946405F7CFC7010E9489068FEF92E567
:101AC00027E0815090402040E1F799CF811132C04A
:101AD0008E010F5C1F4FC8010E94E305C8010E94E0
:101AE00069058FEF99E628E1815090402040E1F7A9
:101AF00000C000007E018BE0E80EF11CC7010E94CF
:101B0000EB06C8010E94DE059FEF29E688E19150AF
:101B100020408040E1F700C00000C7010E94890614
:101B20009FEF26E181E1915020408040E1F700C025
:101B30000000F1CE813009F0EECE8E010F5C1F4F18
:101B4000C8010E94E305C8010E945A059FEF29E6DB
:101B500088E1915020408040E1F700C000007E0104
:101B60009BE0E90EF11CC7010E94EB06C8010E9430
:101B7000DE052FEF89E698E1215080409040E1F7A3
:101B800000C00000C7010E948F062FEF86E191E19F
:101B9000215080409040E1F7CACFFC0181E0808372
:101BA00011821282138280E094E09583848380E026
:101BB00092E1AAE7B0E086839783A087B187789403
:101BC0000895CF93DF93CDB7DEB728970FB6F8947B
:101BD000DEBF0FBECDBFFC014D835E836F83788770
:101BE0002481358150E040E086819781A085B185D0
:101BF000BC01CD010E94EE104427552760E472E439
:101C00008FE090E00E94EE106D817E818F8198853B
:101C10000E94EE10C90128960FB6F894DEBF0FBEE1
:101C2000CDBFDF91CF91089510928500109284006E
:101C3000709389006093880010928000E1E8F0E0E2
:101C400080818D60808310928200EFE6F0E08081D9
:101C500082608083089510928500109284007093B2
:101C600089006093880010928000E1E8F0E08081B4
:101C70008560808310928200EFE6F0E080818260D0
:101C800080830895109285001092840070938900DB
:101C90006093880010928000E1E8F0E080818F601E
:101CA000808310928200EFE6F0E080818260808382
:101CB0000895FC0184B1836084B981E0982F01C04C
:101CC000990F6A95EAF7908301C0880F4A95EAF761
:101CD00081830895FC01808185B90895FC0181818B
:101CE00085B90895FC0180819181892B809585B902
:101CF0000895FC018AE0908195B9AFE0B7E21197B1
:101D0000F1F700C00000918195B9AFEAB6E31197F1
:101D1000F1F700C00000815071F708951F93CF9331
:101D2000DF93EC0118E0888185B92FE38DE093E023
:101D3000215080409040E1F700C00000CE010E9499
:101D4000720E2FE38DE093E0215080409040E1F748
:101D500000C00000115039F7CE01DF91CF911F91E3
:101D60000C94720E1F93CF93DF93EC0118E08981DE
:101D700085B92FE38DE093E0215080409040E1F75A
:101D800000C00000CE010E94720E2FE38DE093E0B0
:101D9000215080409040E1F700C00000115039F719
:101DA000CE01DF91CF911F910C94720E1F93CF93B0
:101DB000DF93EC0117E08AE0988195B9EFE0F7E254
:101DC0003197F1F700C00000998195B9EFEAF6E389
:101DD0003197F1F700C00000815071F7CE010E94E9
:101DE000720EFFE32DE083E0F15020408040E1F7E8
:101DF00000C000001150F9F6CE01DF91CF911F9184
:101E00000C94720EFC0180E091E09183808380E06D
:101E100092E1AAE7B0E082839383A483B58384B17F
:101E20008C6084B92B9A0895AF92BF92CF92DF92C3
:101E3000EF92FF920F931F93CF93DF93CDB7DEB74F
:101E40002A970FB6F894DEBF0FBECDBF8D839E8359
:101E5000262F30E050E040E029833A834B835C83B7
:101E6000CA01B9010E94241220E030E04AE852E49D
:101E700069837A838B839C8369817A818B819C813E
:101E80000E94161120E030E040E451E469837A8337
:101E90008B839C8369817A818B819C810E948311D1
:101EA0009B01AC0160E070E080E090E40E941F13B1
:101EB00020E030E04CED53E469837A838B839C838C
:101EC00069817A818B819C810E94B2127B018C0195
:101ED000AB01BC01AD81BE8116964D935D936D93B0
:101EE0007C93199712966D917D918D919C91159788
:101EF0000E9424125B016C01ED81FE818081918141
:101F0000880F991F9C0150E040E029833A834B835E
:101F10005C83CA01B9010E9424129701A801698358
:101F20007A838B839C8369817A818B819C810E94D7
:101F3000B2129B01AC01A982BA82CB82DC82698198
:101F40007A818B819C810E94831120E030E040E8FF
:101F50005FE369837A838B839C8369817A818B8138
:101F60009C810E941611AD81BE811A966D937D935E
:101F70008D939C931D972A960FB6F894DEBF0FBEE3
:101F8000CDBFDF91CF911F910F91FF90EF90DF9028
:101F9000CF90BF90AF90089516BCFC016285738509
:101FA000848595850E94F51167BD82E484BD85B561
:101FB000846085BD0895CF93DF93D82FC92F61E545
:101FC0000E94140F8D2F9C2FDF91CF910C94CC0F7A
:101FD000CF93DF93D82FC92F6DE20E94140F8D2F5E
:101FE0009C2FDF91CF910C94CC0F15BC08951092CB
:101FF000C5008FEC8093C40088E18093C10086E027
:102000008093C20008958091C00085FFFCCF60934B
:10201000C60008958091C00087FFFCCF8091C60064
:102020000895EF92FF920F931F93CF93DF938C014C
:10203000EA017A01E60EF11CCE15DF0529F069915F
:10204000C8010E940310F8CFDF91CF911F910F912B
:10205000FF90EF900895FC01718360836115710515
:1020600021F06130710579F0089516BC84B5816A5C
:1020700084BD85B5826085BD84B1886784B985B12A
:10208000886185B908951092B2008091B000816A8C
:102090008093B0008091B10082608093B1008AB1DA
:1020A000806F8AB98BB1806C8BB90895FC01CB012C
:1020B00073836283208131812130310569F4892B5A
:1020C00021F06130710529F008958BB18F7C8BB9B7
:1020D00008958BB18063FBCF892B21F061307105AE
:1020E00029F0089585B18F7985B9089585B1806605
:1020F000FBCFFC0180819181892B19F467BD48BD1C
:1021000008956093B3004093B400089510920C01B9
:1021100080910C01811117C080910B01813049F031
:10212000823061F08111F4CF89E091E00E946E0E5F
:10213000EFCF89E091E00E946A0EEACF89E091E05A
:102140000E94790EE5CF80910B01833039F06091C8
:102150000B018BE091E00E943C03F5CF90E080E022
:10216000089541E050E061E08EE991E00E94F804BA
:102170008BE091E00E944D0141E060E089E091E058
:102180000E94590E609100017091010184E091E07C
:102190000C944B0585E891E00E940C018AE791E0E0
:1021A0000E9449038CE491E00E9449038AE491E093
:1021B0000C940C01AA1BBB1B51E107C0AA1FBB1F3B
:1021C000A617B70710F0A61BB70B881F991F5A95C3
:1021D000A9F780959095BC01CD010895A1E21A2E32
:1021E000AA1BBB1BFD010DC0AA1FBB1FEE1FFF1FBB
:1021F000A217B307E407F50720F0A21BB30BE40B0B
:10220000F50B661F771F881F991F1A9469F7609551
:102210007095809590959B01AC01BD01CF0108950B
:10222000EE0FFF1F0590F491E02D09945058BB2745
:10223000AA270E942E110C9478120E946A1238F07C
:102240000E94711220F039F49F3F19F426F40C9487
:1022500067120EF4E095E7FB0C946112E92F0E94DF
:10226000891258F3BA17620773078407950720F09D
:1022700079F4A6F50C94AB120EF4E0950B2EBA2F60
:10228000A02D0B01B90190010C01CA01A00111247C
:10229000FF27591B99F0593F50F4503E68F11A1628
:1022A000F040A22F232F342F4427585FF3CF4695B9
:1022B00037952795A795F0405395C9F77EF41F16DB
:1022C000BA0B620B730B840BBAF09150A1F0FF0FA5
:1022D000BB1F661F771F881FC2F70EC0BA0F621F91
:1022E000731F841F48F4879577956795B795F79581
:1022F0009E3F08F0B0CF9395880F08F09927EE0F16
:102300009795879508950E9497110C9478120E94D2
:10231000711258F00E946A1240F029F45F3F29F0D0
:102320000C94611251110C94AC120C9467120E941F
:10233000891268F39923B1F3552391F3951B550B3B
:10234000BB27AA2762177307840738F09F5F5F4F88
:10235000220F331F441FAA1FA9F335D00E2E3AF0C7
:10236000E0E832D091505040E695001CCAF72BD0DF
:10237000FE2F29D0660F771F881FBB1F2617370730
:102380004807AB07B0E809F0BB0B802DBF01FF2762
:1023900093585F4F3AF09E3F510578F00C946112CC
:1023A0000C94AC125F3FE4F3983ED4F38695779596
:1023B0006795B795F7959F5FC9F7880F911D96951B
:1023C000879597F90895E1E0660F771F881FBB1F77
:1023D000621773078407BA0720F0621B730B840B24
:1023E000BA0BEE1F88F7E09508950E94911288F0CD
:1023F0009F5798F0B92F9927B751B0F0E1F0660FC9
:10240000771F881F991F1AF0BA95C9F714C0B13009
:1024100091F00E94AB12B1E008950C94AB12672FBB
:10242000782F8827B85F39F0B93FCCF38695779538
:102430006795B395D9F73EF4909580957095619521
:102440007F4F8F4F9F4F0895E89409C097FB3EF44C
:1024500090958095709561957F4F8F4F9F4F9923F1
:10246000A9F0F92F96E9BB279395F695879577956F
:102470006795B795F111F8CFFAF4BB0F11F460FF2F
:102480001BC06F5F7F4F8F4F9F4F16C0882311F087
:1024900096E911C0772321F09EE8872F762F05C09B
:1024A000662371F096E8862F70E060E02AF09A9536
:1024B000660F771F881FDAF7880F9695879597F92B
:1024C000089597F99F6780E870E060E008959FEFB6
:1024D00080EC089500240A941616170618060906BB
:1024E000089500240A94121613061406050608958A
:1024F000092E0394000C11F4882352F0BB0F40F412
:10250000BF2B11F460FF04C06F5F7F4F8F4F9F4F51
:10251000089557FD9058440F551F59F05F3F71F0D3
:102520004795880F97FB991F61F09F3F79F087953A
:102530000895121613061406551FF2CF4695F1DFC3
:1025400008C0161617061806991FF1CF8695710553
:10255000610508940895E894BB2766277727CB0187
:1025600097F908950E94C5120C9478120E946A127D
:1025700038F00E94711220F0952311F00C94611232
:102580000C94671211240C94AC120E94891270F3FF
:10259000959FC1F3950F50E0551F629FF001729F08
:1025A000BB27F00DB11D639FAA27F00DB11DAA1F17
:1025B000649F6627B00DA11D661F829F2227B00D64
:1025C000A11D621F739FB00DA11D621F839FA00DEF
:1025D000611D221F749F3327A00D611D231F849F3F
:1025E000600D211D822F762F6A2F11249F57504096
:1025F0009AF0F1F088234AF0EE0FFF1FBB1F661F11
:10260000771F881F91505040A9F79E3F510580F0D9
:102610000C9461120C94AC125F3FE4F3983ED4F337
:10262000869577956795B795F795E7959F5FC1F77D
:10263000FE2B880F911D9695879597F90895FA01BD
:10264000EE0FFF1F309621053105A1F161157105CF
:1026500061F48038BFE39B0749F1689490388105A5
:1026600061F08038BFEF9B0741F099234AF5FF3FA7
:10267000E1053105210519F1E8940894E795D901A0
:10268000AA2329F4AB2FBE2FF85FD0F310C0FF5F51
:1026900070F4A695E0F7F73950F019F0FF3A38F4E6
:1026A0009F779F930DD00F9007FC9058089546F0A8
:1026B0000C94671260E070E080E89FE308954FE7B4
:1026C0009F775F934F933F932F930E941A142F91FC
:1026D0003F914F915F910E94B2120C94771329F4AD
:1026E00016F00C9461120C94AB120C9467120E94B9
:1026F0009112A8F39638A0F707F80F92E8942BE30D
:102700003AEA48EB5FE70E94C8120F920F920F92CD
:102710004DB75EB70F920E946214ECE7F0E00E94A2
:10272000A9134F915F91EF91FF91E595EE1FFF1F68
:1027300049F0FE57E0684427EE0F441FFA95E1F791
:102740004195550B0E94DC130F9007FE0C94D0139B
:102750000895DF93CF931F930F93FF92EF92DF9231
:102760007B018C01689406C0DA2EEF010E94C5122D
:10277000FE01E894A5912591359145915591A6F3D7
:10278000EF010E942E11FE019701A801DA9469F76A
:10279000DF90EF90FF900F911F91CF91DF910895FF
:1027A0009B01AC0160E070E080E89FE30C94831132
:1027B0000C9461120C9496140E949112D8F39923F0
:1027C000C9F3940F511DA3F39150504094F059F068
:1027D000882332F0660F771F881F91505040C1F751
:1027E0009E3F51052CF7880F911D9695879597F977
:1027F00008955F3FACF0983E9CF0BB278695779597
:102800006795B79508F4B1609395C1F7BB0F58F77A
:1028100011F460FFE8CF6F5F7F4F8F4F9F4FE3CF83
:102820000C94AC1216F00C9496140C9467126894E5
:102830000C9461120E949112A8F39923C1F3AEF394
:10284000DF93CF931F930F93FF92C92FDD27882328
:102850002AF02197660F771F881FDAF720E030E013
:1028600040E85FEB9FE3883920F0803E38F0219606
:102870008F770E941711E4EAF0E004C00E9417115C
:10288000E1EDF0E00E94A9138B01BE01EC01FB2EEB
:102890006F5771097595771F880B990B0E94261247
:1028A00028E132E741E35FE30E94C512AF2D9801B2
:1028B000AE01FF900F911F91CF91DF910E942E11D9
:1028C0000C947812FA01DC01AA0FBB1F9B01AC012A
:1028D000BF5728F4222733274427507820C0B75108
:1028E00090F4AB2F0024469537952795011CA395AE
:1028F000D2F3002071F0220F331F441FB395DAF397
:102900000ED00C94161161307105A0E88A07B94603
:1029100030F49B01AC0166277727882790783096A2
:1029200021F0208331834283538308959F3F31F008
:10293000915020F4879577956795B795880F911DED
:102940009695879597F9089510E0C0E8D0E004C007
:10295000FE010E9410112196C138D107C9F7F894E1
:02296000FFCFA7
:042962000100A000D0
:00000001FF
